8=FIX.4.2|9=104|35=D|34=0|49=SenderComp9|50=USERINFO|52=20210707-16:41:57.745|56=TargetComp_UAT|1=TEST|11=20210707_0|21=3|55=SYMBOL_22|54=1|38=8740|40=3|44=20.07|60=20210707-16:41:57.745|167=FUT|59=1|10=248
8=FIX.4.2|9=103|35=D|34=1|49=SenderComp5|50=USERINFO|52=20210707-16:41:57.745|56=TargetComp_UAT|1=TEST|11=20210707_1|21=1|55=SYMBOL_3|54=2|38=8126|40=1|44=68.11|60=20210707-16:41:57.745|167=OPT|59=0|10=247
8=FIX.4.2|9=103|35=D|34=2|49=SenderComp10|50=USERINFO|52=20210707-16:41:57.745|56=TargetComp_UAT|1=TEST|11=20210707_2|21=2|55=SYMBOL_4|54=2|38=6517|40=5|44=38.17|60=20210707-16:41:57.745|167=OPT|59=1|10=248
8=FIX.4.2|9=100|35=D|34=3|49=SenderComp1|50=USERINFO|52=20210707-16:41:57.745|56=TargetComp_UAT|1=TEST|11=20210707_3|21=1|55=SYMBOL_20|54=2|38=4|40=1|44=6.08|60=20210707-16:41:57.745|167=FUT|59=0|10=244
8=FIX.4.2|9=103|35=D|34=4|49=SenderComp7|50=USERINFO|52=20210707-16:41:57.745|56=TargetComp_UAT|1=TEST|11=20210707_4|21=3|55=SYMBOL_2|54=1|38=3662|40=2|44=45.96|60=20210707-16:41:57.745|167=OPT|59=2|10=247
8=FIX.4.2|9=104|35=D|34=5|49=SenderComp2|50=USERINFO|52=20210707-16:41:57.745|56=TargetComp_UAT|1=TEST|11=20210707_5|21=1|55=SYMBOL_16|54=2|38=5586|40=4|44=92.82|60=20210707-16:41:57.745|167=OPT|59=4|10=248
8=FIX.4.2|9=104|35=D|34=6|49=SenderComp4|50=USERINFO|52=20210707-16:41:57.745|56=TargetComp_UAT|1=TEST|11=20210707_6|21=1|55=SYMBOL_19|54=1|38=6511|40=1|44=20.81|60=20210707-16:41:57.745|167=OPT|59=1|10=248
8=FIX.4.2|9=103|35=D|34=7|49=SenderComp8|50=USERINFO|52=20210707-16:41:57.745|56=TargetComp_UAT|1=TEST|11=20210707_7|21=3|55=SYMBOL_27|54=2|38=4145|40=3|44=25.5|60=20210707-16:41:57.745|167=OPT|59=6|10=247
8=FIX.4.2|9=103|35=D|34=8|49=SenderComp8|50=USERINFO|52=20210707-16:41:57.745|56=TargetComp_UAT|1=TEST|11=20210707_8|21=1|55=SYMBOL_2|54=1|38=6956|40=5|44=48.23|60=20210707-16:41:57.745|167=OPT|59=1|10=247
8=FIX.4.2|9=102|35=D|34=9|49=SenderComp7|50=USERINFO|52=20210707-16:41:57.745|56=TargetComp_UAT|1=TEST|11=20210707_9|21=3|55=SYMBOL_5|54=1|38=4276|40=5|44=60.9|60=20210707-16:41:57.745|167=OPT|59=3|10=246
8=FIX.4.2|9=101|35=D|34=10|49=SenderComp6|50=USERINFO|52=20210707-16:41:57.745|56=TargetComp_UAT|1=TEST|11=20210707_10|21=3|55=SYMBOL_10|54=2|38=5|40=2|44=7.29|60=20210707-16:41:57.745|167=FUT|59=3|10=246
8=FIX.4.2|9=103|35=D|34=11|49=SenderComp4|50=USERINFO|52=20210707-16:41:57.745|56=TargetComp_UAT|1=TEST|11=20210707_11|21=1|55=SYMBOL_4|54=2|38=6261|40=1|44=1.58|60=20210707-16:41:57.745|167=OPT|59=6|10=248
8=FIX.4.2|9=104|35=D|34=12|49=SenderComp6|50=USERINFO|52=20210707-16:41:57.745|56=TargetComp_UAT|1=TEST|11=20210707_12|21=1|55=SYMBOL_28|54=2|38=137|40=3|44=18.22|60=20210707-16:41:57.745|167=OPT|59=5|10=249
8=FIX.4.2|9=102|35=D|34=13|49=SenderComp8|50=USERINFO|52=20210707-16:41:57.745|56=TargetComp_UAT|1=TEST|11=20210707_13|21=1|55=SYMBOL_1|54=2|38=946|40=5|44=3.21|60=20210707-16:41:57.745|167=OPT|59=2|10=247
8=FIX.4.2|9=105|35=D|34=14|49=SenderComp3|50=USERINFO|52=20210707-16:41:57.745|56=TargetComp_UAT|1=TEST|11=20210707_14|21=2|55=SYMBOL_23|54=1|38=4738|40=5|44=83.37|60=20210707-16:41:57.745|167=FUT|59=5|10=250
8=FIX.4.2|9=104|35=D|34=15|49=SenderComp9|50=USERINFO|52=20210707-16:41:57.745|56=TargetComp_UAT|1=TEST|11=20210707_15|21=1|55=SYMBOL_7|54=2|38=8247|40=2|44=55.88|60=20210707-16:41:57.745|167=FUT|59=1|10=249
8=FIX.4.2|9=104|35=D|34=16|49=SenderComp2|50=USERINFO|52=20210707-16:41:57.745|56=TargetComp_UAT|1=TEST|11=20210707_16|21=1|55=SYMBOL_15|54=1|38=3060|40=1|44=15.21|60=20210707-16:41:57.745|167=CS|59=0|10=249
8=FIX.4.2|9=105|35=D|34=17|49=SenderComp2|50=USERINFO|52=20210707-16:41:57.745|56=TargetComp_UAT|1=TEST|11=20210707_17|21=1|55=SYMBOL_18|54=1|38=2760|40=5|44=49.26|60=20210707-16:41:57.745|167=FUT|59=6|10=250
8=FIX.4.2|9=105|35=D|34=18|49=SenderComp7|50=USERINFO|52=20210707-16:41:57.745|56=TargetComp_UAT|1=TEST|11=20210707_18|21=1|55=SYMBOL_21|54=1|38=5538|40=5|44=59.38|60=20210707-16:41:57.745|167=FUT|59=1|10=250
8=FIX.4.2|9=105|35=D|34=19|49=SenderComp10|50=USERINFO|52=20210707-16:41:57.745|56=TargetComp_UAT|1=TEST|11=20210707_19|21=1|55=SYMBOL_20|54=2|38=8429|40=5|44=60.84|60=20210707-16:41:57.745|167=OPT|59=4|10=251
8=FIX.4.2|9=105|35=D|34=20|49=SenderComp6|50=USERINFO|52=20210707-16:41:57.745|56=TargetComp_UAT|1=TEST|11=20210707_20|21=2|55=SYMBOL_30|54=1|38=4735|40=4|44=12.92|60=20210707-16:41:57.745|167=FUT|59=5|10=250
8=FIX.4.2|9=104|35=D|34=21|49=SenderComp4|50=USERINFO|52=20210707-16:41:57.745|56=TargetComp_UAT|1=TEST|11=20210707_21|21=3|55=SYMBOL_6|54=2|38=1894|40=1|44=80.52|60=20210707-16:41:57.745|167=OPT|59=1|10=249
8=FIX.4.2|9=104|35=D|34=22|49=SenderComp2|50=USERINFO|52=20210707-16:41:57.745|56=TargetComp_UAT|1=TEST|11=20210707_22|21=1|55=SYMBOL_29|54=1|38=2019|40=3|44=25.55|60=20210707-16:41:57.745|167=CS|59=0|10=249
8=FIX.4.2|9=105|35=D|34=23|49=SenderComp5|50=USERINFO|52=20210707-16:41:57.746|56=TargetComp_UAT|1=TEST|11=20210707_23|21=3|55=SYMBOL_21|54=2|38=4715|40=1|44=66.59|60=20210707-16:41:57.746|167=FUT|59=0|10=250
8=FIX.4.2|9=105|35=D|34=24|49=SenderComp3|50=USERINFO|52=20210707-16:41:57.746|56=TargetComp_UAT|1=TEST|11=20210707_24|21=1|55=SYMBOL_29|54=2|38=4026|40=1|44=93.14|60=20210707-16:41:57.746|167=FUT|59=2|10=250
8=FIX.4.2|9=103|35=D|34=25|49=SenderComp8|50=USERINFO|52=20210707-16:41:57.746|56=TargetComp_UAT|1=TEST|11=20210707_25|21=3|55=SYMBOL_20|54=2|38=4647|40=5|44=5.52|60=20210707-16:41:57.746|167=CS|59=0|10=248
8=FIX.4.2|9=105|35=D|34=26|49=SenderComp10|50=USERINFO|52=20210707-16:41:57.746|56=TargetComp_UAT|1=TEST|11=20210707_26|21=3|55=SYMBOL_13|54=2|38=4249|40=2|44=32.86|60=20210707-16:41:57.746|167=OPT|59=5|10=251
8=FIX.4.2|9=104|35=D|34=27|49=SenderComp6|50=USERINFO|52=20210707-16:41:57.746|56=TargetComp_UAT|1=TEST|11=20210707_27|21=1|55=SYMBOL_9|54=1|38=2775|40=5|44=53.18|60=20210707-16:41:57.746|167=FUT|59=1|10=249
8=FIX.4.2|9=103|35=D|34=28|49=SenderComp1|50=USERINFO|52=20210707-16:41:57.746|56=TargetComp_UAT|1=TEST|11=20210707_28|21=3|55=SYMBOL_1|54=2|38=4133|40=4|44=97.6|60=20210707-16:41:57.746|167=OPT|59=0|10=248
8=FIX.4.2|9=103|35=D|34=29|49=SenderComp7|50=USERINFO|52=20210707-16:41:57.746|56=TargetComp_UAT|1=TEST|11=20210707_29|21=2|55=SYMBOL_7|54=1|38=5993|40=3|44=70.47|60=20210707-16:41:57.746|167=CS|59=1|10=248
