8=FIX.4.2|9=102|35=D|34=0|49=SenderComp7|50=USERINFO|52=20210709-09:16:07.134|56=TargetComp_UAT|1=TEST|11=20210709_0|21=1|55=SYMBOL_6|54=2|38=4795|40=1|44=26.57|60=20210709-09:16:07.134|167=CS|59=4|10=246|
8=FIX.4.2|9=102|35=D|34=1|49=SenderComp2|50=USERINFO|52=20210709-09:16:07.134|56=TargetComp_UAT|1=TEST|11=20210709_1|21=3|55=SYMBOL_7|54=1|38=747|40=3|44=54.78|60=20210709-09:16:07.134|167=OPT|59=2|10=246|
8=FIX.4.2|9=104|35=D|34=2|49=SenderComp10|50=USERINFO|52=20210709-09:16:07.134|56=TargetComp_UAT|1=TEST|11=20210709_2|21=1|55=SYMBOL_17|54=2|38=8978|40=5|44=78.59|60=20210709-09:16:07.134|167=FUT|59=0|10=249|
8=FIX.4.2|9=104|35=D|34=3|49=SenderComp1|50=USERINFO|52=20210709-09:16:07.134|56=TargetComp_UAT|1=TEST|11=20210709_3|21=1|55=SYMBOL_14|54=2|38=8752|40=3|44=35.99|60=20210709-09:16:07.134|167=FUT|59=6|10=248|
8=FIX.4.2|9=104|35=D|34=4|49=SenderComp9|50=USERINFO|52=20210709-09:16:07.134|56=TargetComp_UAT|1=TEST|11=20210709_4|21=1|55=SYMBOL_17|54=1|38=2233|40=1|44=58.09|60=20210709-09:16:07.134|167=OPT|59=1|10=248|
8=FIX.4.2|9=103|35=D|34=5|49=SenderComp4|50=USERINFO|52=20210709-09:16:07.134|56=TargetComp_UAT|1=TEST|11=20210709_5|21=2|55=SYMBOL_23|54=1|38=8886|40=2|44=48.23|60=20210709-09:16:07.134|167=CS|59=3|10=247|
8=FIX.4.2|9=103|35=D|34=6|49=SenderComp5|50=USERINFO|52=20210709-09:16:07.134|56=TargetComp_UAT|1=TEST|11=20210709_6|21=2|55=SYMBOL_28|54=1|38=2201|40=2|44=38.49|60=20210709-09:16:07.134|167=CS|59=2|10=247|
8=FIX.4.2|9=103|35=D|34=7|49=SenderComp10|50=USERINFO|52=20210709-09:16:07.134|56=TargetComp_UAT|1=TEST|11=20210709_7|21=1|55=SYMBOL_22|54=2|38=9698|40=5|44=16.03|60=20210709-09:16:07.134|167=CS|59=2|10=248|
8=FIX.4.2|9=103|35=D|34=8|49=SenderComp4|50=USERINFO|52=20210709-09:16:07.135|56=TargetComp_UAT|1=TEST|11=20210709_8|21=2|55=SYMBOL_1|54=1|38=3469|40=3|44=32.51|60=20210709-09:16:07.135|167=FUT|59=6|10=247|
8=FIX.4.2|9=103|35=D|34=9|49=SenderComp4|50=USERINFO|52=20210709-09:16:07.135|56=TargetComp_UAT|1=TEST|11=20210709_9|21=2|55=SYMBOL_19|54=2|38=1884|40=2|44=16.61|60=20210709-09:16:07.135|167=CS|59=3|10=247|
8=FIX.4.2|9=104|35=D|34=10|49=SenderComp9|50=USERINFO|52=20210709-09:16:07.135|56=TargetComp_UAT|1=TEST|11=20210709_10|21=3|55=SYMBOL_9|54=1|38=7339|40=1|44=72.38|60=20210709-09:16:07.135|167=OPT|59=3|10=249|
8=FIX.4.2|9=104|35=D|34=11|49=SenderComp5|50=USERINFO|52=20210709-09:16:07.135|56=TargetComp_UAT|1=TEST|11=20210709_11|21=3|55=SYMBOL_27|54=1|38=6273|40=5|44=69.83|60=20210709-09:16:07.135|167=CS|59=2|10=249|
8=FIX.4.2|9=103|35=D|34=12|49=SenderComp5|50=USERINFO|52=20210709-09:16:07.135|56=TargetComp_UAT|1=TEST|11=20210709_12|21=1|55=SYMBOL_2|54=2|38=2709|40=2|44=26.51|60=20210709-09:16:07.135|167=CS|59=6|10=248|
8=FIX.4.2|9=103|35=D|34=13|49=SenderComp6|50=USERINFO|52=20210709-09:16:07.135|56=TargetComp_UAT|1=TEST|11=20210709_13|21=1|55=SYMBOL_25|54=2|38=705|40=1|44=16.79|60=20210709-09:16:07.135|167=CS|59=6|10=248|
8=FIX.4.2|9=105|35=D|34=14|49=SenderComp1|50=USERINFO|52=20210709-09:16:07.135|56=TargetComp_UAT|1=TEST|11=20210709_14|21=1|55=SYMBOL_19|54=2|38=5458|40=2|44=18.06|60=20210709-09:16:07.135|167=FUT|59=1|10=250|
8=FIX.4.2|9=105|35=D|34=15|49=SenderComp3|50=USERINFO|52=20210709-09:16:07.135|56=TargetComp_UAT|1=TEST|11=20210709_15|21=2|55=SYMBOL_17|54=1|38=3473|40=1|44=82.51|60=20210709-09:16:07.135|167=FUT|59=4|10=250|
8=FIX.4.2|9=104|35=D|34=16|49=SenderComp2|50=USERINFO|52=20210709-09:16:07.135|56=TargetComp_UAT|1=TEST|11=20210709_16|21=3|55=SYMBOL_6|54=2|38=1822|40=4|44=94.66|60=20210709-09:16:07.135|167=OPT|59=6|10=249|
8=FIX.4.2|9=104|35=D|34=17|49=SenderComp7|50=USERINFO|52=20210709-09:16:07.135|56=TargetComp_UAT|1=TEST|11=20210709_17|21=1|55=SYMBOL_13|54=1|38=1115|40=4|44=89.38|60=20210709-09:16:07.135|167=CS|59=6|10=249|
8=FIX.4.2|9=104|35=D|34=18|49=SenderComp9|50=USERINFO|52=20210709-09:16:07.135|56=TargetComp_UAT|1=TEST|11=20210709_18|21=1|55=SYMBOL_29|54=1|38=1861|40=2|44=5.57|60=20210709-09:16:07.135|167=FUT|59=5|10=249|
8=FIX.4.2|9=105|35=D|34=19|49=SenderComp10|50=USERINFO|52=20210709-09:16:07.135|56=TargetComp_UAT|1=TEST|11=20210709_19|21=3|55=SYMBOL_22|54=2|38=8014|40=4|44=19.09|60=20210709-09:16:07.135|167=OPT|59=0|10=251|
8=FIX.4.2|9=105|35=D|34=20|49=SenderComp10|50=USERINFO|52=20210709-09:16:07.135|56=TargetComp_UAT|1=TEST|11=20210709_20|21=2|55=SYMBOL_16|54=2|38=1081|40=1|44=29.66|60=20210709-09:16:07.135|167=FUT|59=5|10=251|
8=FIX.4.2|9=103|35=D|34=21|49=SenderComp3|50=USERINFO|52=20210709-09:16:07.135|56=TargetComp_UAT|1=TEST|11=20210709_21|21=3|55=SYMBOL_17|54=1|38=7453|40=1|44=8.93|60=20210709-09:16:07.135|167=CS|59=5|10=248|
8=FIX.4.2|9=103|35=D|34=22|49=SenderComp9|50=USERINFO|52=20210709-09:16:07.135|56=TargetComp_UAT|1=TEST|11=20210709_22|21=2|55=SYMBOL_9|54=2|38=9018|40=5|44=92.45|60=20210709-09:16:07.135|167=CS|59=1|10=248|
8=FIX.4.2|9=103|35=D|34=23|49=SenderComp3|50=USERINFO|52=20210709-09:16:07.135|56=TargetComp_UAT|1=TEST|11=20210709_23|21=1|55=SYMBOL_7|54=1|38=809|40=2|44=38.88|60=20210709-09:16:07.135|167=FUT|59=4|10=248|
8=FIX.4.2|9=105|35=D|34=24|49=SenderComp8|50=USERINFO|52=20210709-09:16:07.135|56=TargetComp_UAT|1=TEST|11=20210709_24|21=3|55=SYMBOL_13|54=2|38=7024|40=5|44=48.37|60=20210709-09:16:07.135|167=OPT|59=1|10=250|
8=FIX.4.2|9=104|35=D|34=25|49=SenderComp10|50=USERINFO|52=20210709-09:16:07.135|56=TargetComp_UAT|1=TEST|11=20210709_25|21=1|55=SYMBOL_17|54=1|38=6575|40=3|44=60.38|60=20210709-09:16:07.135|167=CS|59=1|10=250|
8=FIX.4.2|9=105|35=D|34=26|49=SenderComp3|50=USERINFO|52=20210709-09:16:07.135|56=TargetComp_UAT|1=TEST|11=20210709_26|21=3|55=SYMBOL_18|54=2|38=2574|40=4|44=40.78|60=20210709-09:16:07.135|167=OPT|59=0|10=250|
8=FIX.4.2|9=104|35=D|34=27|49=SenderComp7|50=USERINFO|52=20210709-09:16:07.135|56=TargetComp_UAT|1=TEST|11=20210709_27|21=1|55=SYMBOL_19|54=1|38=2969|40=1|44=75.0|60=20210709-09:16:07.135|167=FUT|59=3|10=249|
8=FIX.4.2|9=104|35=D|34=28|49=SenderComp3|50=USERINFO|52=20210709-09:16:07.135|56=TargetComp_UAT|1=TEST|11=20210709_28|21=2|55=SYMBOL_11|54=1|38=6052|40=1|44=53.2|60=20210709-09:16:07.135|167=OPT|59=4|10=249|
8=FIX.4.2|9=104|35=D|34=29|49=SenderComp6|50=USERINFO|52=20210709-09:16:07.135|56=TargetComp_UAT|1=TEST|11=20210709_29|21=1|55=SYMBOL_23|54=1|38=9221|40=4|44=86.89|60=20210709-09:16:07.135|167=CS|59=2|10=249|
